:0800000012C0FECFFDCF2CC0A1
:1000080028C0FACFF9CFF8CFF7CFF6CFF5CFF4CF96
:10001800F3CFF2CFF1CFF0CFEFCFEECFEDCFF89413
:10002800EE27ECBBF1E0FBBFEBBFE5BF8DE0A2E044
:10003800BB27ED938A95E9F780E094E0A0E6ED937D
:100048000197E9F7EFE5EDBFE4E0EEBFC0E6D1E0E8
:100058002CC0949A959A18959498959818951A93EF
:100068001A2FE12FE062E7B98BE18A95F1F7369A0A
:10007800349BFECF349AE5B119910895949A9398D8
:10008800929A959A0FC0939A929802C09398929ACE
:10009800C798C69A0895939A929804C09498939A88
:1000A80092989598C79AC6980895EFEFE7BBE0E055
:1000B800E8BBE4BBEFE7E5BBEFEFE1BBE0E0E2BBA9
:1000C800E3BFE2BFEFBDEEBDEDBDECBDE7BDE6BDF4
:1000D800EBBDEABDE9BDE8BDE2BDE2E0E5BDE0E0BB
:1000E800E4BDE3BDE0ECE9BFE0E0E5BFEAB9E0E884
:1000F800E8B9E0E2E7B9E3E8E6B9E0E0E0BFEDB986
:10010800E6BF78949A9905C0B9DFC19AC298C39A94
:1001180019C09B9906C018D0BEDFC19AC29AC39A6B
:1001280011C09C9906C010D0B1DFC19AC298C3987B
:1001380009C09D9906C008D0A6DFC198C298C39A85
:1001480001C0ACDFDFCFFFCFA0E089DFE3BD0895BA
:00000001FF
